{
  "_format": "hh-sol-artifact-1",
  "contractName": "VisitToken",
  "sourceName": "contracts/VisitToken.sol",
  "abi": [
    {
      "inputs": [
        {
          "internalType": "address",
          "name": "initialOwner",
          "type": "address"
        }
      ],
      "stateMutability": "nonpayable",
      "type": "constructor"
    },
    {
      "inputs": [
        {
          "internalType": "address",
          "name": "sender",
          "type": "address"
        },
        {
          "internalType": "uint256",
          "name": "tokenId",
          "type": "uint256"
        },
        {
          "internalType": "address",
          "name": "owner",
          "type": "address"
        }
      ],
      "name": "ERC721IncorrectOwner",
      "type": "error"
    },
    {
      "inputs": [
        {
          "internalType": "address",
          "name": "operator",
          "type": "address"
        },
        {
          "internalType": "uint256",
          "name": "tokenId",
          "type": "uint256"
        }
      ],
      "name": "ERC721InsufficientApproval",
      "type": "error"
    },
    {
      "inputs": [
        {
          "internalType": "address",
          "name": "approver",
          "type": "address"
        }
      ],
      "name": "ERC721InvalidApprover",
      "type": "error"
    },
    {
      "inputs": [
        {
          "internalType": "address",
          "name": "operator",
          "type": "address"
        }
      ],
      "name": "ERC721InvalidOperator",
      "type": "error"
    },
    {
      "inputs": [
        {
          "internalType": "address",
          "name": "owner",
          "type": "address"
        }
      ],
      "name": "ERC721InvalidOwner",
      "type": "error"
    },
    {
      "inputs": [
        {
          "internalType": "address",
          "name": "receiver",
          "type": "address"
        }
      ],
      "name": "ERC721InvalidReceiver",
      "type": "error"
    },
    {
      "inputs": [
        {
          "internalType": "address",
          "name": "sender",
          "type": "address"
        }
      ],
      "name": "ERC721InvalidSender",
      "type": "error"
    },
    {
      "inputs": [
        {
          "internalType": "uint256",
          "name": "tokenId",
          "type": "uint256"
        }
      ],
      "name": "ERC721NonexistentToken",
      "type": "error"
    },
    {
      "inputs": [
        {
          "internalType": "address",
          "name": "owner",
          "type": "address"
        }
      ],
      "name": "OwnableInvalidOwner",
      "type": "error"
    },
    {
      "inputs": [
        {
          "internalType": "address",
          "name": "account",
          "type": "address"
        }
      ],
      "name": "OwnableUnauthorizedAccount",
      "type": "error"
    },
    {
      "anonymous": false,
      "inputs": [
        {
          "indexed": true,
          "internalType": "address",
          "name": "owner",
          "type": "address"
        },
        {
          "indexed": true,
          "internalType": "address",
          "name": "approved",
          "type": "address"
        },
        {
          "indexed": true,
          "internalType": "uint256",
          "name": "tokenId",
          "type": "uint256"
        }
      ],
      "name": "Approval",
      "type": "event"
    },
    {
      "anonymous": false,
      "inputs": [
        {
          "indexed": true,
          "internalType": "address",
          "name": "owner",
          "type": "address"
        },
        {
          "indexed": true,
          "internalType": "address",
          "name": "operator",
          "type": "address"
        },
        {
          "indexed": false,
          "internalType": "bool",
          "name": "approved",
          "type": "bool"
        }
      ],
      "name": "ApprovalForAll",
      "type": "event"
    },
    {
      "anonymous": false,
      "inputs": [
        {
          "indexed": false,
          "internalType": "uint256",
          "name": "_fromTokenId",
          "type": "uint256"
        },
        {
          "indexed": false,
          "internalType": "uint256",
          "name": "_toTokenId",
          "type": "uint256"
        }
      ],
      "name": "BatchMetadataUpdate",
      "type": "event"
    },
    {
      "anonymous": false,
      "inputs": [
        {
          "indexed": false,
          "internalType": "uint256",
          "name": "_tokenId",
          "type": "uint256"
        }
      ],
      "name": "MetadataUpdate",
      "type": "event"
    },
    {
      "anonymous": false,
      "inputs": [
        {
          "indexed": true,
          "internalType": "address",
          "name": "previousOwner",
          "type": "address"
        },
        {
          "indexed": true,
          "internalType": "address",
          "name": "newOwner",
          "type": "address"
        }
      ],
      "name": "OwnershipTransferred",
      "type": "event"
    },
    {
      "anonymous": false,
      "inputs": [
        {
          "indexed": true,
          "internalType": "address",
          "name": "from",
          "type": "address"
        },
        {
          "indexed": true,
          "internalType": "address",
          "name": "to",
          "type": "address"
        },
        {
          "indexed": true,
          "internalType": "uint256",
          "name": "tokenId",
          "type": "uint256"
        }
      ],
      "name": "Transfer",
      "type": "event"
    },
    {
      "inputs": [
        {
          "internalType": "address",
          "name": "to",
          "type": "address"
        },
        {
          "internalType": "uint256",
          "name": "tokenId",
          "type": "uint256"
        }
      ],
      "name": "approve",
      "outputs": [],
      "stateMutability": "nonpayable",
      "type": "function"
    },
    {
      "inputs": [
        {
          "internalType": "address",
          "name": "owner",
          "type": "address"
        }
      ],
      "name": "balanceOf",
      "outputs": [
        {
          "internalType": "uint256",
          "name": "",
          "type": "uint256"
        }
      ],
      "stateMutability": "view",
      "type": "function"
    },
    {
      "inputs": [
        {
          "internalType": "uint256",
          "name": "tokenId",
          "type": "uint256"
        }
      ],
      "name": "getApproved",
      "outputs": [
        {
          "internalType": "address",
          "name": "",
          "type": "address"
        }
      ],
      "stateMutability": "view",
      "type": "function"
    },
    {
      "inputs": [
        {
          "internalType": "address",
          "name": "owner",
          "type": "address"
        }
      ],
      "name": "getTokenURIsByOwner",
      "outputs": [
        {
          "internalType": "string[]",
          "name": "",
          "type": "string[]"
        }
      ],
      "stateMutability": "view",
      "type": "function"
    },
    {
      "inputs": [
        {
          "internalType": "address",
          "name": "owner",
          "type": "address"
        }
      ],
      "name": "getTokensByOwner",
      "outputs": [
        {
          "internalType": "uint256[]",
          "name": "",
          "type": "uint256[]"
        }
      ],
      "stateMutability": "view",
      "type": "function"
    },
    {
      "inputs": [
        {
          "internalType": "address",
          "name": "owner",
          "type": "address"
        },
        {
          "internalType": "address",
          "name": "operator",
          "type": "address"
        }
      ],
      "name": "isApprovedForAll",
      "outputs": [
        {
          "internalType": "bool",
          "name": "",
          "type": "bool"
        }
      ],
      "stateMutability": "view",
      "type": "function"
    },
    {
      "inputs": [],
      "name": "name",
      "outputs": [
        {
          "internalType": "string",
          "name": "",
          "type": "string"
        }
      ],
      "stateMutability": "view",
      "type": "function"
    },
    {
      "inputs": [],
      "name": "owner",
      "outputs": [
        {
          "internalType": "address",
          "name": "",
          "type": "address"
        }
      ],
      "stateMutability": "view",
      "type": "function"
    },
    {
      "inputs": [
        {
          "internalType": "uint256",
          "name": "tokenId",
          "type": "uint256"
        }
      ],
      "name": "ownerOf",
      "outputs": [
        {
          "internalType": "address",
          "name": "",
          "type": "address"
        }
      ],
      "stateMutability": "view",
      "type": "function"
    },
    {
      "inputs": [
        {
          "internalType": "address",
          "name": "",
          "type": "address"
        },
        {
          "internalType": "uint256",
          "name": "",
          "type": "uint256"
        }
      ],
      "name": "ownerToTokens",
      "outputs": [
        {
          "internalType": "uint256",
          "name": "",
          "type": "uint256"
        }
      ],
      "stateMutability": "view",
      "type": "function"
    },
    {
      "inputs": [],
      "name": "renounceOwnership",
      "outputs": [],
      "stateMutability": "nonpayable",
      "type": "function"
    },
    {
      "inputs": [
        {
          "internalType": "address",
          "name": "to",
          "type": "address"
        },
        {
          "internalType": "string",
          "name": "uri",
          "type": "string"
        }
      ],
      "name": "safeMint",
      "outputs": [
        {
          "internalType": "uint256",
          "name": "",
          "type": "uint256"
        }
      ],
      "stateMutability": "nonpayable",
      "type": "function"
    },
    {
      "inputs": [
        {
          "internalType": "address",
          "name": "from",
          "type": "address"
        },
        {
          "internalType": "address",
          "name": "to",
          "type": "address"
        },
        {
          "internalType": "uint256",
          "name": "tokenId",
          "type": "uint256"
        }
      ],
      "name": "safeTransferFrom",
      "outputs": [],
      "stateMutability": "nonpayable",
      "type": "function"
    },
    {
      "inputs": [
        {
          "internalType": "address",
          "name": "from",
          "type": "address"
        },
        {
          "internalType": "address",
          "name": "to",
          "type": "address"
        },
        {
          "internalType": "uint256",
          "name": "tokenId",
          "type": "uint256"
        },
        {
          "internalType": "bytes",
          "name": "data",
          "type": "bytes"
        }
      ],
      "name": "safeTransferFrom",
      "outputs": [],
      "stateMutability": "nonpayable",
      "type": "function"
    },
    {
      "inputs": [
        {
          "internalType": "address",
          "name": "operator",
          "type": "address"
        },
        {
          "internalType": "bool",
          "name": "approved",
          "type": "bool"
        }
      ],
      "name": "setApprovalForAll",
      "outputs": [],
      "stateMutability": "nonpayable",
      "type": "function"
    },
    {
      "inputs": [
        {
          "internalType": "bytes4",
          "name": "interfaceId",
          "type": "bytes4"
        }
      ],
      "name": "supportsInterface",
      "outputs": [
        {
          "internalType": "bool",
          "name": "",
          "type": "bool"
        }
      ],
      "stateMutability": "view",
      "type": "function"
    },
    {
      "inputs": [],
      "name": "symbol",
      "outputs": [
        {
          "internalType": "string",
          "name": "",
          "type": "string"
        }
      ],
      "stateMutability": "view",
      "type": "function"
    },
    {
      "inputs": [
        {
          "internalType": "uint256",
          "name": "tokenId",
          "type": "uint256"
        }
      ],
      "name": "tokenURI",
      "outputs": [
        {
          "internalType": "string",
          "name": "",
          "type": "string"
        }
      ],
      "stateMutability": "view",
      "type": "function"
    },
    {
      "inputs": [
        {
          "internalType": "address",
          "name": "from",
          "type": "address"
        },
        {
          "internalType": "address",
          "name": "to",
          "type": "address"
        },
        {
          "internalType": "uint256",
          "name": "tokenId",
          "type": "uint256"
        }
      ],
      "name": "transferFrom",
      "outputs": [],
      "stateMutability": "nonpayable",
      "type": "function"
    },
    {
      "inputs": [
        {
          "internalType": "address",
          "name": "newOwner",
          "type": "address"
        }
      ],
      "name": "transferOwnership",
      "outputs": [],
      "stateMutability": "nonpayable",
      "type": "function"
    }
  ],
  "bytecode": "0x608060405234801561001057600080fd5b506040516131f03803806131f083398181016040528101906100329190610272565b806040518060400160405280600a81526020017f5669736974546f6b656e000000000000000000000000000000000000000000008152506040518060400160405280600481526020017f435653540000000000000000000000000000000000000000000000000000000081525081600090816100ae91906104ef565b5080600190816100be91906104ef565b505050600073ffffffffffffffffffffffffffffffffffffffff168173ffffffffffffffffffffffffffffffffffffffff16036101335760006040517f1e4fbdf700000000000000000000000000000000000000000000000000000000815260040161012a91906105d0565b60405180910390fd5b6101428161014960201b60201c565b50506105eb565b6000600760009054906101000a900473ffffffffffffffffffffffffffffffffffffffff16905081600760006101000a81548173ffffffffffffffffffffffffffffffffffffffff021916908373ffffffffffffffffffffffffffffffffffffffff1602179055508173ffffffffffffffffffffffffffffffffffffffff168173ffffffffffffffffffffffffffffffffffffffff167f8be0079c531659141344cd1fd0a4f28419497f9722a3daafe3b4186f6b6457e060405160405180910390a35050565b600080fd5b600073ffffffffffffffffffffffffffffffffffffffff82169050919050565b600061023f82610214565b9050919050565b61024f81610234565b811461025a57600080fd5b50565b60008151905061026c81610246565b92915050565b6000602082840312156102885761028761020f565b5b60006102968482850161025d565b91505092915050565b600081519050919050565b7f4e487b7100000000000000000000000000000000000000000000000000000000600052604160045260246000fd5b7f4e487b7100000000000000000000000000000000000000000000000000000000600052602260045260246000fd5b6000600282049050600182168061032057607f821691505b602082108103610333576103326102d9565b5b50919050565b60008190508160005260206000209050919050565b60006020601f8301049050919050565b600082821b905092915050565b60006008830261039b7fffffffffffffffffffffffffffffffffffffffffffffffffffffffffffffffff8261035e565b6103a5868361035e565b95508019841693508086168417925050509392505050565b6000819050919050565b6000819050919050565b60006103ec6103e76103e2846103bd565b6103c7565b6103bd565b9050919050565b6000819050919050565b610406836103d1565b61041a610412826103f3565b84845461036b565b825550505050565b600090565b61042f610422565b61043a8184846103fd565b505050565b5b8181101561045e57610453600082610427565b600181019050610440565b5050565b601f8211156104a35761047481610339565b61047d8461034e565b8101602085101561048c578190505b6104a06104988561034e565b83018261043f565b50505b505050565b600082821c905092915050565b60006104c6600019846008026104a8565b1980831691505092915050565b60006104df83836104b5565b9150826002028217905092915050565b6104f88261029f565b67ffffffffffffffff811115610511576105106102aa565b5b61051b8254610308565b610526828285610462565b600060209050601f8311600181146105595760008415610547578287015190505b61055185826104d3565b8655506105b9565b601f19841661056786610339565b60005b8281101561058f5784890151825560018201915060208501945060208101905061056a565b868310156105ac57848901516105a8601f8916826104b5565b8355505b6001600288020188555050505b505050505050565b6105ca81610234565b82525050565b60006020820190506105e560008301846105c1565b92915050565b612bf6806105fa6000396000f3fe608060405234801561001057600080fd5b506004361061012c5760003560e01c806370a08231116100ad578063b88d4fde11610071578063b88d4fde14610355578063c87b56dd14610371578063d204c45e146103a1578063e985e9c5146103d1578063f2fde38b146104015761012c565b806370a08231146102c3578063715018a6146102f35780638da5cb5b146102fd57806395d89b411461031b578063a22cb465146103395761012c565b806315e8675e116100f457806315e8675e146101fb57806323b872dd1461022b57806340398d671461024757806342842e0e146102775780636352211e146102935761012c565b806301ffc9a71461013157806306fdde0314610161578063081812fc1461017f578063095ea7b3146101af5780630d828fe0146101cb575b600080fd5b61014b60048036038101906101469190611e11565b61041d565b6040516101589190611e59565b60405180910390f35b61016961042f565b6040516101769190611f04565b60405180910390f35b61019960048036038101906101949190611f5c565b6104c1565b6040516101a69190611fca565b60405180910390f35b6101c960048036038101906101c49190612011565b6104dd565b005b6101e560048036038101906101e09190612011565b6104f3565b6040516101f29190612060565b60405180910390f35b6102156004803603810190610210919061207b565b610524565b60405161022291906121b4565b60405180910390f35b610245600480360381019061024091906121d6565b610664565b005b610261600480360381019061025c919061207b565b610766565b60405161026e91906122e7565b60405180910390f35b610291600480360381019061028c91906121d6565b6107fd565b005b6102ad60048036038101906102a89190611f5c565b61081d565b6040516102ba9190611fca565b60405180910390f35b6102dd60048036038101906102d8919061207b565b61082f565b6040516102ea9190612060565b60405180910390f35b6102fb6108e9565b005b6103056108fd565b6040516103129190611fca565b60405180910390f35b610323610927565b6040516103309190611f04565b60405180910390f35b610353600480360381019061034e9190612335565b6109b9565b005b61036f600480360381019061036a91906124aa565b6109cf565b005b61038b60048036038101906103869190611f5c565b6109f4565b6040516103989190611f04565b60405180910390f35b6103bb60048036038101906103b691906125ce565b610a06565b6040516103c89190612060565b60405180910390f35b6103eb60048036038101906103e6919061262a565b610aa6565b6040516103f89190611e59565b60405180910390f35b61041b6004803603810190610416919061207b565b610b3a565b005b600061042882610bc0565b9050919050565b60606000805461043e90612699565b80601f016020809104026020016040519081016040528092919081815260200182805461046a90612699565b80156104b75780601f1061048c576101008083540402835291602001916104b7565b820191906000526020600020905b81548152906001019060200180831161049a57829003601f168201915b5050505050905090565b60006104cc82610c21565b506104d682610ca9565b9050919050565b6104ef82826104ea610ce6565b610cee565b5050565b6009602052816000526040600020818154811061050f57600080fd5b90600052602060002001600091509150505481565b60606000600960008473ffffffffffffffffffffffffffffffffffffffff1673ffffffffffffffffffffffffffffffffffffffff16815260200190815260200160002080549050905060008167ffffffffffffffff8111156105895761058861237f565b5b6040519080825280602002602001820160405280156105bc57816020015b60608152602001906001900390816105a75790505b50905060005b828110156106595761062e600960008773ffffffffffffffffffffffffffffffffffffffff1673ffffffffffffffffffffffffffffffffffffffff168152602001908152602001600020828154811061061e5761061d6126ca565b5b9060005260206000200154610d00565b828281518110610641576106406126ca565b5b602002602001018190525080806001019150506105c2565b508092505050919050565b600073ffffffffffffffffffffffffffffffffffffffff168273ffffffffffffffffffffffffffffffffffffffff16036106d65760006040517f64a0ae920000000000000000000000000000000000000000000000000000000081526004016106cd9190611fca565b60405180910390fd5b60006106ea83836106e5610ce6565b610e13565b90508373ffffffffffffffffffffffffffffffffffffffff168173ffffffffffffffffffffffffffffffffffffffff1614610760578382826040517f64283d7b000000000000000000000000000000000000000000000000000000008152600401610757939291906126f9565b60405180910390fd5b50505050565b6060600960008373ffffffffffffffffffffffffffffffffffffffff1673ffffffffffffffffffffffffffffffffffffffff1681526020019081526020016000208054806020026020016040519081016040528092919081815260200182805480156107f157602002820191906000526020600020905b8154815260200190600101908083116107dd575b50505050509050919050565b610818838383604051806020016040528060008152506109cf565b505050565b600061082882610c21565b9050919050565b60008073ffffffffffffffffffffffffffffffffffffffff168273ffffffffffffffffffffffffffffffffffffffff16036108a25760006040517f89c62b640000000000000000000000000000000000000000000000000000000081526004016108999190611fca565b60405180910390fd5b600360008373ffffffffffffffffffffffffffffffffffffffff1673ffffffffffffffffffffffffffffffffffffffff168152602001908152602001600020549050919050565b6108f161102d565b6108fb60006110b4565b565b6000600760009054906101000a900473ffffffffffffffffffffffffffffffffffffffff16905090565b60606001805461093690612699565b80601f016020809104026020016040519081016040528092919081815260200182805461096290612699565b80156109af5780601f10610984576101008083540402835291602001916109af565b820191906000526020600020905b81548152906001019060200180831161099257829003601f168201915b5050505050905090565b6109cb6109c4610ce6565b838361117a565b5050565b6109da848484610664565b6109ee6109e5610ce6565b858585856112e9565b50505050565b60606109ff82610d00565b9050919050565b60008060086000815480929190610a1c9061275f565b919050559050610a2c848261149a565b610a3681846114b8565b600960008573ffffffffffffffffffffffffffffffffffffffff1673ffffffffffffffffffffffffffffffffffffffff1681526020019081526020016000208190806001815401808255809150506001900390600052602060002001600090919091909150558091505092915050565b6000600560008473ffffffffffffffffffffffffffffffffffffffff1673ffffffffffffffffffffffffffffffffffffffff16815260200190815260200160002060008373ffffffffffffffffffffffffffffffffffffffff1673ffffffffffffffffffffffffffffffffffffffff16815260200190815260200160002060009054906101000a900460ff16905092915050565b610b4261102d565b600073ffffffffffffffffffffffffffffffffffffffff168173ffffffffffffffffffffffffffffffffffffffff1603610bb45760006040517f1e4fbdf7000000000000000000000000000000000000000000000000000000008152600401610bab9190611fca565b60405180910390fd5b610bbd816110b4565b50565b6000634906490660e01b7bffffffffffffffffffffffffffffffffffffffffffffffffffffffff1916827bffffffffffffffffffffffffffffffffffffffffffffffffffffffff19161480610c1a5750610c1982611514565b5b9050919050565b600080610c2d836115f6565b9050600073ffffffffffffffffffffffffffffffffffffffff168173ffffffffffffffffffffffffffffffffffffffff1603610ca057826040517f7e273289000000000000000000000000000000000000000000000000000000008152600401610c979190612060565b60405180910390fd5b80915050919050565b60006004600083815260200190815260200160002060009054906101000a900473ffffffffffffffffffffffffffffffffffffffff169050919050565b600033905090565b610cfb8383836001611633565b505050565b6060610d0b82610c21565b506000600660008481526020019081526020016000208054610d2c90612699565b80601f0160208091040260200160405190810160405280929190818152602001828054610d5890612699565b8015610da55780601f10610d7a57610100808354040283529160200191610da5565b820191906000526020600020905b815481529060010190602001808311610d8857829003601f168201915b505050505090506000610db66117f8565b90506000815103610dcb578192505050610e0e565b600082511115610e00578082604051602001610de89291906127e3565b60405160208183030381529060405292505050610e0e565b610e098461180f565b925050505b919050565b600080610e1f846115f6565b9050600073ffffffffffffffffffffffffffffffffffffffff168373ffffffffffffffffffffffffffffffffffffffff1614610e6157610e60818486611878565b5b600073ffffffffffffffffffffffffffffffffffffffff168173ffffffffffffffffffffffffffffffffffffffff1614610ef257610ea3600085600080611633565b6001600360008373ffffffffffffffffffffffffffffffffffffffff1673ffffffffffffffffffffffffffffffffffffffff168152602001908152602001600020600082825403925050819055505b600073ffffffffffffffffffffffffffffffffffffffff168573ffffffffffffffffffffffffffffffffffffffff1614610f75576001600360008773ffffffffffffffffffffffffffffffffffffffff1673ffffffffffffffffffffffffffffffffffffffff168152602001908152602001600020600082825401925050819055505b846002600086815260200190815260200160002060006101000a81548173ffffffffffffffffffffffffffffffffffffffff021916908373ffffffffffffffffffffffffffffffffffffffff160217905550838573ffffffffffffffffffffffffffffffffffffffff168273ffffffffffffffffffffffffffffffffffffffff167fddf252ad1be2c89b69c2b068fc378daa952ba7f163c4a11628f55a4df523b3ef60405160405180910390a4809150509392505050565b611035610ce6565b73ffffffffffffffffffffffffffffffffffffffff166110536108fd565b73ffffffffffffffffffffffffffffffffffffffff16146110b257611076610ce6565b6040517f118cdaa70000000000000000000000000000000000000000000000000000000081526004016110a99190611fca565b60405180910390fd5b565b6000600760009054906101000a900473ffffffffffffffffffffffffffffffffffffffff16905081600760006101000a81548173ffffffffffffffffffffffffffffffffffffffff021916908373ffffffffffffffffffffffffffffffffffffffff1602179055508173ffffffffffffffffffffffffffffffffffffffff168173ffffffffffffffffffffffffffffffffffffffff167f8be0079c531659141344cd1fd0a4f28419497f9722a3daafe3b4186f6b6457e060405160405180910390a35050565b600073ffffffffffffffffffffffffffffffffffffffff168273ffffffffffffffffffffffffffffffffffffffff16036111eb57816040517f5b08ba180000000000000000000000000000000000000000000000000000000081526004016111e29190611fca565b60405180910390fd5b80600560008573ffffffffffffffffffffffffffffffffffffffff1673ffffffffffffffffffffffffffffffffffffffff16815260200190815260200160002060008473ffffffffffffffffffffffffffffffffffffffff1673ffffffffffffffffffffffffffffffffffffffff16815260200190815260200160002060006101000a81548160ff0219169083151502179055508173ffffffffffffffffffffffffffffffffffffffff168373ffffffffffffffffffffffffffffffffffffffff167f17307eab39ab6107e8899845ad3d59bd9653f200f220920489ca2b5937696c31836040516112dc9190611e59565b60405180910390a3505050565b60008373ffffffffffffffffffffffffffffffffffffffff163b1115611493578273ffffffffffffffffffffffffffffffffffffffff1663150b7a02868685856040518563ffffffff1660e01b8152600401611348949392919061285c565b6020604051808303816000875af192505050801561138457506040513d601f19601f8201168201806040525081019061138191906128bd565b60015b611408573d80600081146113b4576040519150601f19603f3d011682016040523d82523d6000602084013e6113b9565b606091505b50600081510361140057836040517f64a0ae920000000000000000000000000000000000000000000000000000000081526004016113f79190611fca565b60405180910390fd5b805181602001fd5b63150b7a0260e01b7bffffffffffffffffffffffffffffffffffffffffffffffffffffffff1916817bffffffffffffffffffffffffffffffffffffffffffffffffffffffff19161461149157836040517f64a0ae920000000000000000000000000000000000000000000000000000000081526004016114889190611fca565b60405180910390fd5b505b5050505050565b6114b482826040518060200160405280600081525061193c565b5050565b806006600084815260200190815260200160002090816114d89190612a96565b507ff8e1a15aba9398e019f0b49df1a4fde98ee17ae345cb5f6b5e2c27f5033e8ce7826040516115089190612060565b60405180910390a15050565b60007f80ac58cd000000000000000000000000000000000000000000000000000000007bffffffffffffffffffffffffffffffffffffffffffffffffffffffff1916827bffffffffffffffffffffffffffffffffffffffffffffffffffffffff191614806115df57507f5b5e139f000000000000000000000000000000000000000000000000000000007bffffffffffffffffffffffffffffffffffffffffffffffffffffffff1916827bffffffffffffffffffffffffffffffffffffffffffffffffffffffff1916145b806115ef57506115ee82611960565b5b9050919050565b60006002600083815260200190815260200160002060009054906101000a900473ffffffffffffffffffffffffffffffffffffffff169050919050565b808061166c5750600073ffffffffffffffffffffffffffffffffffffffff168273ffffffffffffffffffffffffffffffffffffffff1614155b156117a057600061167c84610c21565b9050600073ffffffffffffffffffffffffffffffffffffffff168373ffffffffffffffffffffffffffffffffffffffff16141580156116e757508273ffffffffffffffffffffffffffffffffffffffff168173ffffffffffffffffffffffffffffffffffffffff1614155b80156116fa57506116f88184610aa6565b155b1561173c57826040517fa9fbf51f0000000000000000000000000000000000000000000000000000000081526004016117339190611fca565b60405180910390fd5b811561179e57838573ffffffffffffffffffffffffffffffffffffffff168273ffffffffffffffffffffffffffffffffffffffff167f8c5be1e5ebec7d5bd14f71427d1e84f3dd0314c0f7b2291e5b200ac8c7c3b92560405160405180910390a45b505b836004600085815260200190815260200160002060006101000a81548173ffffffffffffffffffffffffffffffffffffffff021916908373ffffffffffffffffffffffffffffffffffffffff16021790555050505050565b606060405180602001604052806000815250905090565b606061181a82610c21565b5060006118256117f8565b905060008151116118455760405180602001604052806000815250611870565b8061184f846119ca565b6040516020016118609291906127e3565b6040516020818303038152906040525b915050919050565b611883838383611a98565b61193757600073ffffffffffffffffffffffffffffffffffffffff168373ffffffffffffffffffffffffffffffffffffffff16036118f857806040517f7e2732890000000000000000000000000000000000000000000000000000000081526004016118ef9190612060565b60405180910390fd5b81816040517f177e802f00000000000000000000000000000000000000000000000000000000815260040161192e929190612b68565b60405180910390fd5b505050565b6119468383611b59565b61195b611951610ce6565b60008585856112e9565b505050565b60007f01ffc9a7000000000000000000000000000000000000000000000000000000007bffffffffffffffffffffffffffffffffffffffffffffffffffffffff1916827bffffffffffffffffffffffffffffffffffffffffffffffffffffffff1916149050919050565b6060600060016119d984611c52565b01905060008167ffffffffffffffff8111156119f8576119f761237f565b5b6040519080825280601f01601f191660200182016040528015611a2a5781602001600182028036833780820191505090505b509050600082602001820190505b600115611a8d578080600190039150507f3031323334353637383961626364656600000000000000000000000000000000600a86061a8153600a8581611a8157611a80612b91565b5b04945060008503611a38575b819350505050919050565b60008073ffffffffffffffffffffffffffffffffffffffff168373ffffffffffffffffffffffffffffffffffffffff1614158015611b5057508273ffffffffffffffffffffffffffffffffffffffff168473ffffffffffffffffffffffffffffffffffffffff161480611b115750611b108484610aa6565b5b80611b4f57508273ffffffffffffffffffffffffffffffffffffffff16611b3783610ca9565b73ffffffffffffffffffffffffffffffffffffffff16145b5b90509392505050565b600073ffffffffffffffffffffffffffffffffffffffff168273ffffffffffffffffffffffffffffffffffffffff1603611bcb5760006040517f64a0ae92000000000000000000000000000000000000000000000000000000008152600401611bc29190611fca565b60405180910390fd5b6000611bd983836000610e13565b9050600073ffffffffffffffffffffffffffffffffffffffff168173ffffffffffffffffffffffffffffffffffffffff1614611c4d5760006040517f73c6ac6e000000000000000000000000000000000000000000000000000000008152600401611c449190611fca565b60405180910390fd5b505050565b600080600090507a184f03e93ff9f4daa797ed6e38ed64bf6a1f0100000000000000008310611cb0577a184f03e93ff9f4daa797ed6e38ed64bf6a1f0100000000000000008381611ca657611ca5612b91565b5b0492506040810190505b6d04ee2d6d415b85acef81000000008310611ced576d04ee2d6d415b85acef81000000008381611ce357611ce2612b91565b5b0492506020810190505b662386f26fc100008310611d1c57662386f26fc100008381611d1257611d11612b91565b5b0492506010810190505b6305f5e1008310611d45576305f5e1008381611d3b57611d3a612b91565b5b0492506008810190505b6127108310611d6a576127108381611d6057611d5f612b91565b5b0492506004810190505b60648310611d8d5760648381611d8357611d82612b91565b5b0492506002810190505b600a8310611d9c576001810190505b80915050919050565b6000604051905090565b600080fd5b600080fd5b60007fffffffff0000000000000000000000000000000000000000000000000000000082169050919050565b611dee81611db9565b8114611df957600080fd5b50565b600081359050611e0b81611de5565b92915050565b600060208284031215611e2757611e26611daf565b5b6000611e3584828501611dfc565b91505092915050565b60008115159050919050565b611e5381611e3e565b82525050565b6000602082019050611e6e6000830184611e4a565b92915050565b600081519050919050565b600082825260208201905092915050565b60005b83811015611eae578082015181840152602081019050611e93565b60008484015250505050565b6000601f19601f8301169050919050565b6000611ed682611e74565b611ee08185611e7f565b9350611ef0818560208601611e90565b611ef981611eba565b840191505092915050565b60006020820190508181036000830152611f1e8184611ecb565b905092915050565b6000819050919050565b611f3981611f26565b8114611f4457600080fd5b50565b600081359050611f5681611f30565b92915050565b600060208284031215611f7257611f71611daf565b5b6000611f8084828501611f47565b91505092915050565b600073ffffffffffffffffffffffffffffffffffffffff82169050919050565b6000611fb482611f89565b9050919050565b611fc481611fa9565b82525050565b6000602082019050611fdf6000830184611fbb565b92915050565b611fee81611fa9565b8114611ff957600080fd5b50565b60008135905061200b81611fe5565b92915050565b6000806040838503121561202857612027611daf565b5b600061203685828601611ffc565b925050602061204785828601611f47565b9150509250929050565b61205a81611f26565b82525050565b60006020820190506120756000830184612051565b92915050565b60006020828403121561209157612090611daf565b5b600061209f84828501611ffc565b91505092915050565b600081519050919050565b600082825260208201905092915050565b6000819050602082019050919050565b600082825260208201905092915050565b60006120f082611e74565b6120fa81856120d4565b935061210a818560208601611e90565b61211381611eba565b840191505092915050565b600061212a83836120e5565b905092915050565b6000602082019050919050565b600061214a826120a8565b61215481856120b3565b935083602082028501612166856120c4565b8060005b858110156121a25784840389528151612183858261211e565b945061218e83612132565b925060208a0199505060018101905061216a565b50829750879550505050505092915050565b600060208201905081810360008301526121ce818461213f565b905092915050565b6000806000606084860312156121ef576121ee611daf565b5b60006121fd86828701611ffc565b935050602061220e86828701611ffc565b925050604061221f86828701611f47565b9150509250925092565b600081519050919050565b600082825260208201905092915050565b6000819050602082019050919050565b61225e81611f26565b82525050565b60006122708383612255565b60208301905092915050565b6000602082019050919050565b600061229482612229565b61229e8185612234565b93506122a983612245565b8060005b838110156122da5781516122c18882612264565b97506122cc8361227c565b9250506001810190506122ad565b5085935050505092915050565b600060208201905081810360008301526123018184612289565b905092915050565b61231281611e3e565b811461231d57600080fd5b50565b60008135905061232f81612309565b92915050565b6000806040838503121561234c5761234b611daf565b5b600061235a85828601611ffc565b925050602061236b85828601612320565b9150509250929050565b600080fd5b600080fd5b7f4e487b7100000000000000000000000000000000000000000000000000000000600052604160045260246000fd5b6123b782611eba565b810181811067ffffffffffffffff821117156123d6576123d561237f565b5b80604052505050565b60006123e9611da5565b90506123f582826123ae565b919050565b600067ffffffffffffffff8211156124155761241461237f565b5b61241e82611eba565b9050602081019050919050565b82818337600083830152505050565b600061244d612448846123fa565b6123df565b9050828152602081018484840111156124695761246861237a565b5b61247484828561242b565b509392505050565b600082601f83011261249157612490612375565b5b81356124a184826020860161243a565b91505092915050565b600080600080608085870312156124c4576124c3611daf565b5b60006124d287828801611ffc565b94505060206124e387828801611ffc565b93505060406124f487828801611f47565b925050606085013567ffffffffffffffff81111561251557612514611db4565b5b6125218782880161247c565b91505092959194509250565b600067ffffffffffffffff8211156125485761254761237f565b5b61255182611eba565b9050602081019050919050565b600061257161256c8461252d565b6123df565b90508281526020810184848401111561258d5761258c61237a565b5b61259884828561242b565b509392505050565b600082601f8301126125b5576125b4612375565b5b81356125c584826020860161255e565b91505092915050565b600080604083850312156125e5576125e4611daf565b5b60006125f385828601611ffc565b925050602083013567ffffffffffffffff81111561261457612613611db4565b5b612620858286016125a0565b9150509250929050565b6000806040838503121561264157612640611daf565b5b600061264f85828601611ffc565b925050602061266085828601611ffc565b9150509250929050565b7f4e487b7100000000000000000000000000000000000000000000000000000000600052602260045260246000fd5b600060028204905060018216806126b157607f821691505b6020821081036126c4576126c361266a565b5b50919050565b7f4e487b7100000000000000000000000000000000000000000000000000000000600052603260045260246000fd5b600060608201905061270e6000830186611fbb565b61271b6020830185612051565b6127286040830184611fbb565b949350505050565b7f4e487b7100000000000000000000000000000000000000000000000000000000600052601160045260246000fd5b600061276a82611f26565b91507fffffffffffffffffffffffffffffffffffffffffffffffffffffffffffffffff820361279c5761279b612730565b5b600182019050919050565b600081905092915050565b60006127bd82611e74565b6127c781856127a7565b93506127d7818560208601611e90565b80840191505092915050565b60006127ef82856127b2565b91506127fb82846127b2565b91508190509392505050565b600081519050919050565b600082825260208201905092915050565b600061282e82612807565b6128388185612812565b9350612848818560208601611e90565b61285181611eba565b840191505092915050565b60006080820190506128716000830187611fbb565b61287e6020830186611fbb565b61288b6040830185612051565b818103606083015261289d8184612823565b905095945050505050565b6000815190506128b781611de5565b92915050565b6000602082840312156128d3576128d2611daf565b5b60006128e1848285016128a8565b91505092915050565b60008190508160005260206000209050919050565b60006020601f8301049050919050565b600082821b905092915050565b60006008830261294c7fffffffffffffffffffffffffffffffffffffffffffffffffffffffffffffffff8261290f565b612956868361290f565b95508019841693508086168417925050509392505050565b6000819050919050565b600061299361298e61298984611f26565b61296e565b611f26565b9050919050565b6000819050919050565b6129ad83612978565b6129c16129b98261299a565b84845461291c565b825550505050565b600090565b6129d66129c9565b6129e18184846129a4565b505050565b5b81811015612a05576129fa6000826129ce565b6001810190506129e7565b5050565b601f821115612a4a57612a1b816128ea565b612a24846128ff565b81016020851015612a33578190505b612a47612a3f856128ff565b8301826129e6565b50505b505050565b600082821c905092915050565b6000612a6d60001984600802612a4f565b1980831691505092915050565b6000612a868383612a5c565b9150826002028217905092915050565b612a9f82611e74565b67ffffffffffffffff811115612ab857612ab761237f565b5b612ac28254612699565b612acd828285612a09565b600060209050601f831160018114612b005760008415612aee578287015190505b612af88582612a7a565b865550612b60565b601f198416612b0e866128ea565b60005b82811015612b3657848901518255600182019150602085019450602081019050612b11565b86831015612b535784890151612b4f601f891682612a5c565b8355505b6001600288020188555050505b505050505050565b6000604082019050612b7d6000830185611fbb565b612b8a6020830184612051565b9392505050565b7f4e487b7100000000000000000000000000000000000000000000000000000000600052601260045260246000fdfea2646970667358221220af67b4525d943f2fc2e75d32677976e8ee444dd0c96a3c1bf557024667a939c664736f6c634300081c0033",
  "linkReferences": {},
  "deployedLinkReferences": {}
}