{
  "_format": "hh-sol-artifact-1",
  "contractName": "LandmarkRegistry",
  "sourceName": "contracts/LandmarkRegistry.sol",
  "abi": [
    {
      "inputs": [
        {
          "internalType": "address",
          "name": "_visitToken",
          "type": "address"
        }
      ],
      "stateMutability": "nonpayable",
      "type": "constructor"
    },
    {
      "anonymous": false,
      "inputs": [
        {
          "indexed": true,
          "internalType": "uint256",
          "name": "id",
          "type": "uint256"
        },
        {
          "indexed": true,
          "internalType": "address",
          "name": "owner",
          "type": "address"
        },
        {
          "indexed": false,
          "internalType": "string",
          "name": "name",
          "type": "string"
        },
        {
          "indexed": false,
          "internalType": "int256",
          "name": "lat",
          "type": "int256"
        },
        {
          "indexed": false,
          "internalType": "int256",
          "name": "lng",
          "type": "int256"
        }
      ],
      "name": "LandmarkRegistered",
      "type": "event"
    },
    {
      "anonymous": false,
      "inputs": [
        {
          "indexed": true,
          "internalType": "uint256",
          "name": "tokenId",
          "type": "uint256"
        },
        {
          "indexed": true,
          "internalType": "address",
          "name": "visitor",
          "type": "address"
        },
        {
          "indexed": true,
          "internalType": "uint256",
          "name": "landmarkId",
          "type": "uint256"
        }
      ],
      "name": "VisitMinted",
      "type": "event"
    },
    {
      "inputs": [
        {
          "internalType": "int256",
          "name": "lat",
          "type": "int256"
        },
        {
          "internalType": "int256",
          "name": "lng",
          "type": "int256"
        }
      ],
      "name": "getNearbyLandmarks",
      "outputs": [
        {
          "components": [
            {
              "internalType": "uint256",
              "name": "id",
              "type": "uint256"
            },
            {
              "internalType": "string",
              "name": "name",
              "type": "string"
            },
            {
              "internalType": "string",
              "name": "imageURI",
              "type": "string"
            },
            {
              "internalType": "int256",
              "name": "lat",
              "type": "int256"
            },
            {
              "internalType": "int256",
              "name": "lng",
              "type": "int256"
            },
            {
              "internalType": "address",
              "name": "owner",
              "type": "address"
            },
            {
              "internalType": "int256",
              "name": "pathIndex",
              "type": "int256"
            }
          ],
          "internalType": "struct LandmarkRegistry.Landmark[]",
          "name": "",
          "type": "tuple[]"
        }
      ],
      "stateMutability": "view",
      "type": "function"
    },
    {
      "inputs": [
        {
          "internalType": "address",
          "name": "user",
          "type": "address"
        }
      ],
      "name": "getVisitedLandmarks",
      "outputs": [
        {
          "components": [
            {
              "internalType": "uint256",
              "name": "id",
              "type": "uint256"
            },
            {
              "internalType": "string",
              "name": "name",
              "type": "string"
            },
            {
              "internalType": "string",
              "name": "imageURI",
              "type": "string"
            },
            {
              "internalType": "int256",
              "name": "lat",
              "type": "int256"
            },
            {
              "internalType": "int256",
              "name": "lng",
              "type": "int256"
            },
            {
              "internalType": "address",
              "name": "owner",
              "type": "address"
            },
            {
              "internalType": "int256",
              "name": "pathIndex",
              "type": "int256"
            }
          ],
          "internalType": "struct LandmarkRegistry.Landmark[]",
          "name": "",
          "type": "tuple[]"
        }
      ],
      "stateMutability": "view",
      "type": "function"
    },
    {
      "inputs": [
        {
          "internalType": "int256",
          "name": "",
          "type": "int256"
        },
        {
          "internalType": "int256",
          "name": "",
          "type": "int256"
        },
        {
          "internalType": "uint256",
          "name": "",
          "type": "uint256"
        }
      ],
      "name": "grid",
      "outputs": [
        {
          "internalType": "uint256",
          "name": "",
          "type": "uint256"
        }
      ],
      "stateMutability": "view",
      "type": "function"
    },
    {
      "inputs": [
        {
          "internalType": "uint256",
          "name": "landmarkId",
          "type": "uint256"
        },
        {
          "internalType": "address",
          "name": "user",
          "type": "address"
        }
      ],
      "name": "hasUserVisited",
      "outputs": [
        {
          "internalType": "bool",
          "name": "",
          "type": "bool"
        }
      ],
      "stateMutability": "view",
      "type": "function"
    },
    {
      "inputs": [
        {
          "internalType": "uint256",
          "name": "",
          "type": "uint256"
        },
        {
          "internalType": "address",
          "name": "",
          "type": "address"
        }
      ],
      "name": "hasVisited",
      "outputs": [
        {
          "internalType": "bool",
          "name": "",
          "type": "bool"
        }
      ],
      "stateMutability": "view",
      "type": "function"
    },
    {
      "inputs": [
        {
          "internalType": "uint256",
          "name": "",
          "type": "uint256"
        }
      ],
      "name": "landmarks",
      "outputs": [
        {
          "internalType": "uint256",
          "name": "id",
          "type": "uint256"
        },
        {
          "internalType": "string",
          "name": "name",
          "type": "string"
        },
        {
          "internalType": "string",
          "name": "imageURI",
          "type": "string"
        },
        {
          "internalType": "int256",
          "name": "lat",
          "type": "int256"
        },
        {
          "internalType": "int256",
          "name": "lng",
          "type": "int256"
        },
        {
          "internalType": "address",
          "name": "owner",
          "type": "address"
        },
        {
          "internalType": "int256",
          "name": "pathIndex",
          "type": "int256"
        }
      ],
      "stateMutability": "view",
      "type": "function"
    },
    {
      "inputs": [],
      "name": "nextLandmarkId",
      "outputs": [
        {
          "internalType": "uint256",
          "name": "",
          "type": "uint256"
        }
      ],
      "stateMutability": "view",
      "type": "function"
    },
    {
      "inputs": [
        {
          "internalType": "string",
          "name": "name",
          "type": "string"
        },
        {
          "internalType": "string",
          "name": "imageUri",
          "type": "string"
        },
        {
          "internalType": "int256",
          "name": "lat",
          "type": "int256"
        },
        {
          "internalType": "int256",
          "name": "lng",
          "type": "int256"
        },
        {
          "internalType": "int256",
          "name": "pathIndex",
          "type": "int256"
        }
      ],
      "name": "registerLandmark",
      "outputs": [],
      "stateMutability": "nonpayable",
      "type": "function"
    },
    {
      "inputs": [
        {
          "internalType": "uint256",
          "name": "landmarkId",
          "type": "uint256"
        },
        {
          "internalType": "string",
          "name": "pictureUri",
          "type": "string"
        }
      ],
      "name": "visitLandmark",
      "outputs": [],
      "stateMutability": "nonpayable",
      "type": "function"
    },
    {
      "inputs": [],
      "name": "visitToken",
      "outputs": [
        {
          "internalType": "contract VisitToken",
          "name": "",
          "type": "address"
        }
      ],
      "stateMutability": "view",
      "type": "function"
    },
    {
      "inputs": [
        {
          "internalType": "address",
          "name": "",
          "type": "address"
        },
        {
          "internalType": "uint256",
          "name": "",
          "type": "uint256"
        }
      ],
      "name": "visitedLandmarks",
      "outputs": [
        {
          "internalType": "uint256",
          "name": "",
          "type": "uint256"
        }
      ],
      "stateMutability": "view",
      "type": "function"
    }
  ],
  "bytecode": "0x608060405234801561001057600080fd5b506040516120c13803806120c1833981810160405281019061003291906100db565b806000806101000a81548173ffffffffffffffffffffffffffffffffffffffff021916908373ffffffffffffffffffffffffffffffffffffffff16021790555050610108565b600080fd5b600073ffffffffffffffffffffffffffffffffffffffff82169050919050565b60006100a88261007d565b9050919050565b6100b88161009d565b81146100c357600080fd5b50565b6000815190506100d5816100af565b92915050565b6000602082840312156100f1576100f0610078565b5b60006100ff848285016100c6565b91505092915050565b611faa806101176000396000f3fe608060405234801561001057600080fd5b50600436106100a95760003560e01c80638879ecae116100715780638879ecae1461017c578063a8eccadc146101ac578063ae8dcf45146101dc578063bac4f59a1461020c578063d73e46701461022a578063f8ef842b1461025a576100a9565b80632d43573d146100ae5780633a415c77146100e4578063568510e914610100578063655d2baf146101305780637d60e9751461014c575b600080fd5b6100c860048036038101906100c3919061113d565b610278565b6040516100db9796959493929190611263565b60405180910390f35b6100fe60048036038101906100f99190611441565b6103ea565b005b61011a60048036038101906101159190611520565b6105c1565b604051610127919061157b565b60405180910390f35b61014a60048036038101906101459190611596565b6105f0565b005b610166600480360381019061016191906115f2565b610851565b6040516101739190611645565b60405180910390f35b61019660048036038101906101919190611660565b61088f565b6040516101a39190611645565b60405180910390f35b6101c660048036038101906101c191906116a0565b6108c0565b6040516101d391906118a9565b60405180910390f35b6101f660048036038101906101f19190611520565b610bbd565b604051610203919061157b565b60405180910390f35b610214610c25565b604051610221919061192a565b60405180910390f35b610244600480360381019061023f9190611945565b610c49565b60405161025191906118a9565b60405180910390f35b610262611083565b60405161026f9190611645565b60405180910390f35b60026020528060005260406000206000915090508060000154908060010180546102a1906119b4565b80601f01602080910402602001604051908101604052809291908181526020018280546102cd906119b4565b801561031a5780601f106102ef5761010080835404028352916020019161031a565b820191906000526020600020905b8154815290600101906020018083116102fd57829003601f168201915b50505050509080600201805461032f906119b4565b80601f016020809104026020016040519081016040528092919081815260200182805461035b906119b4565b80156103a85780601f1061037d576101008083540402835291602001916103a8565b820191906000526020600020905b81548152906001019060200180831161038b57829003601f168201915b5050505050908060030154908060040154908060050160009054906101000a900473ffffffffffffffffffffffffffffffffffffffff16908060060154905087565b6000600160008154809291906103ff90611a14565b9190505590506040518060e001604052808281526020018781526020018681526020018581526020018481526020013373ffffffffffffffffffffffffffffffffffffffff16815260200183815250600260008381526020019081526020016000206000820151816000015560208201518160010190816104809190611bfe565b5060408201518160020190816104969190611bfe565b50606082015181600301556080820151816004015560a08201518160050160006101000a81548173ffffffffffffffffffffffffffffffffffffffff021916908373ffffffffffffffffffffffffffffffffffffffff16021790555060c08201518160060155905050600061050a85611089565b9050600061051785611089565b90506003600083815260200190815260200160002060008281526020019081526020016000208390806001815401808255809150506001900390600052602060002001600090919091909150553373ffffffffffffffffffffffffffffffffffffffff16837f571c3747792d8f730cc7a29d92999206b47f99eb22dc8fe0ccc02f4585e2955c8a89896040516105af93929190611cd0565b60405180910390a35050505050505050565b60046020528160005260406000206020528060005260406000206000915091509054906101000a900460ff1681565b600073ffffffffffffffffffffffffffffffffffffffff166002600084815260200190815260200160002060050160009054906101000a900473ffffffffffffffffffffffffffffffffffffffff1673ffffffffffffffffffffffffffffffffffffffff1603610695576040517f08c379a000000000000000000000000000000000000000000000000000000000815260040161068c90611d5a565b60405180910390fd5b60016004600084815260200190815260200160002060003373ffffffffffffffffffffffffffffffffffffffff1673ffffffffffffffffffffffffffffffffffffffff16815260200190815260200160002060006101000a81548160ff02191690831515021790555060008060009054906101000a900473ffffffffffffffffffffffffffffffffffffffff1673ffffffffffffffffffffffffffffffffffffffff1663d204c45e33846040518363ffffffff1660e01b815260040161075c929190611d7a565b6020604051808303816000875af115801561077b573d6000803e3d6000fd5b505050506040513d601f19601f8201168201806040525081019061079f9190611dbf565b9050600560003373ffffffffffffffffffffffffffffffffffffffff1673ffffffffffffffffffffffffffffffffffffffff168152602001908152602001600020839080600181540180825580915050600190039060005260206000200160009091909190915055823373ffffffffffffffffffffffffffffffffffffffff16827ff501bd536838b05e44fa276d63110e61158c771fff99c10d878062fb7f494dc160405160405180910390a4505050565b6003602052826000526040600020602052816000526040600020818154811061087957600080fd5b9060005260206000200160009250925050505481565b600560205281600052604060002081815481106108ab57600080fd5b90600052602060002001600091509150505481565b60606000600560008473ffffffffffffffffffffffffffffffffffffffff1673ffffffffffffffffffffffffffffffffffffffff16815260200190815260200160002080549050905060008167ffffffffffffffff811115610925576109246112ea565b5b60405190808252806020026020018201604052801561095e57816020015b61094b6110a0565b8152602001906001900390816109435790505b50905060005b82811015610bb25760026000600560008873ffffffffffffffffffffffffffffffffffffffff1673ffffffffffffffffffffffffffffffffffffffff16815260200190815260200160002083815481106109c1576109c0611dec565b5b906000526020600020015481526020019081526020016000206040518060e0016040529081600082015481526020016001820180546109ff906119b4565b80601f0160208091040260200160405190810160405280929190818152602001828054610a2b906119b4565b8015610a785780601f10610a4d57610100808354040283529160200191610a78565b820191906000526020600020905b815481529060010190602001808311610a5b57829003601f168201915b50505050508152602001600282018054610a91906119b4565b80601f0160208091040260200160405190810160405280929190818152602001828054610abd906119b4565b8015610b0a5780601f10610adf57610100808354040283529160200191610b0a565b820191906000526020600020905b815481529060010190602001808311610aed57829003601f168201915b5050505050815260200160038201548152602001600482015481526020016005820160009054906101000a900473ffffffffffffffffffffffffffffffffffffffff1673ffffffffffffffffffffffffffffffffffffffff1673ffffffffffffffffffffffffffffffffffffffff168152602001600682015481525050828281518110610b9a57610b99611dec565b5b60200260200101819052508080600101915050610964565b508092505050919050565b60006004600084815260200190815260200160002060008373ffffffffffffffffffffffffffffffffffffffff1673ffffffffffffffffffffffffffffffffffffffff16815260200190815260200160002060009054906101000a900460ff16905092915050565b60008054906101000a900473ffffffffffffffffffffffffffffffffffffffff1681565b60606000610c5684611089565b90506000610c6384611089565b90506000807fffffffffffffffffffffffffffffffffffffffffffffffffffffffffffffffff90505b60018113610d345760007fffffffffffffffffffffffffffffffffffffffffffffffffffffffffffffffff90505b60018113610d2057600360008387610cd29190611e1b565b815260200190815260200160002060008286610cee9190611e1b565b81526020019081526020016000208054905083610d0b9190611e5f565b92508080610d1890611e93565b915050610cba565b508080610d2c90611e93565b915050610c8c565b5060008167ffffffffffffffff811115610d5157610d506112ea565b5b604051908082528060200260200182016040528015610d8a57816020015b610d776110a0565b815260200190600190039081610d6f5790505b5090506000807fffffffffffffffffffffffffffffffffffffffffffffffffffffffffffffffff90505b600181136110745760007fffffffffffffffffffffffffffffffffffffffffffffffffffffffffffffffff90505b6001811361106057600060036000848a610dfc9190611e1b565b815260200190815260200160002060008389610e189190611e1b565b8152602001908152602001600020905060005b818054905081101561104b5760026000838381548110610e4e57610e4d611dec565b5b906000526020600020015481526020019081526020016000206040518060e001604052908160008201548152602001600182018054610e8c906119b4565b80601f0160208091040260200160405190810160405280929190818152602001828054610eb8906119b4565b8015610f055780601f10610eda57610100808354040283529160200191610f05565b820191906000526020600020905b815481529060010190602001808311610ee857829003601f168201915b50505050508152602001600282018054610f1e906119b4565b80601f0160208091040260200160405190810160405280929190818152602001828054610f4a906119b4565b8015610f975780601f10610f6c57610100808354040283529160200191610f97565b820191906000526020600020905b815481529060010190602001808311610f7a57829003601f168201915b5050505050815260200160038201548152602001600482015481526020016005820160009054906101000a900473ffffffffffffffffffffffffffffffffffffffff1673ffffffffffffffffffffffffffffffffffffffff1673ffffffffffffffffffffffffffffffffffffffff16815260200160068201548152505086868061102090611a14565b97508151811061103357611032611dec565b5b60200260200101819052508080600101915050610e2b565b5050808061105890611e93565b915050610de2565b50808061106c90611e93565b915050610db4565b50819550505050505092915050565b60015481565b60006101f4826110999190611f0a565b9050919050565b6040518060e001604052806000815260200160608152602001606081526020016000815260200160008152602001600073ffffffffffffffffffffffffffffffffffffffff168152602001600081525090565b6000604051905090565b600080fd5b600080fd5b6000819050919050565b61111a81611107565b811461112557600080fd5b50565b60008135905061113781611111565b92915050565b600060208284031215611153576111526110fd565b5b600061116184828501611128565b91505092915050565b61117381611107565b82525050565b600081519050919050565b600082825260208201905092915050565b60005b838110156111b3578082015181840152602081019050611198565b60008484015250505050565b6000601f19601f8301169050919050565b60006111db82611179565b6111e58185611184565b93506111f5818560208601611195565b6111fe816111bf565b840191505092915050565b6000819050919050565b61121c81611209565b82525050565b600073ffffffffffffffffffffffffffffffffffffffff82169050919050565b600061124d82611222565b9050919050565b61125d81611242565b82525050565b600060e082019050611278600083018a61116a565b818103602083015261128a81896111d0565b9050818103604083015261129e81886111d0565b90506112ad6060830187611213565b6112ba6080830186611213565b6112c760a0830185611254565b6112d460c0830184611213565b98975050505050505050565b600080fd5b600080fd5b7f4e487b7100000000000000000000000000000000000000000000000000000000600052604160045260246000fd5b611322826111bf565b810181811067ffffffffffffffff82111715611341576113406112ea565b5b80604052505050565b60006113546110f3565b90506113608282611319565b919050565b600067ffffffffffffffff8211156113805761137f6112ea565b5b611389826111bf565b9050602081019050919050565b82818337600083830152505050565b60006113b86113b384611365565b61134a565b9050828152602081018484840111156113d4576113d36112e5565b5b6113df848285611396565b509392505050565b600082601f8301126113fc576113fb6112e0565b5b813561140c8482602086016113a5565b91505092915050565b61141e81611209565b811461142957600080fd5b50565b60008135905061143b81611415565b92915050565b600080600080600060a0868803121561145d5761145c6110fd565b5b600086013567ffffffffffffffff81111561147b5761147a611102565b5b611487888289016113e7565b955050602086013567ffffffffffffffff8111156114a8576114a7611102565b5b6114b4888289016113e7565b94505060406114c58882890161142c565b93505060606114d68882890161142c565b92505060806114e78882890161142c565b9150509295509295909350565b6114fd81611242565b811461150857600080fd5b50565b60008135905061151a816114f4565b92915050565b60008060408385031215611537576115366110fd565b5b600061154585828601611128565b92505060206115568582860161150b565b9150509250929050565b60008115159050919050565b61157581611560565b82525050565b6000602082019050611590600083018461156c565b92915050565b600080604083850312156115ad576115ac6110fd565b5b60006115bb85828601611128565b925050602083013567ffffffffffffffff8111156115dc576115db611102565b5b6115e8858286016113e7565b9150509250929050565b60008060006060848603121561160b5761160a6110fd565b5b60006116198682870161142c565b935050602061162a8682870161142c565b925050604061163b86828701611128565b9150509250925092565b600060208201905061165a600083018461116a565b92915050565b60008060408385031215611677576116766110fd565b5b60006116858582860161150b565b925050602061169685828601611128565b9150509250929050565b6000602082840312156116b6576116b56110fd565b5b60006116c48482850161150b565b91505092915050565b600081519050919050565b600082825260208201905092915050565b6000819050602082019050919050565b61170281611107565b82525050565b600082825260208201905092915050565b600061172482611179565b61172e8185611708565b935061173e818560208601611195565b611747816111bf565b840191505092915050565b61175b81611209565b82525050565b61176a81611242565b82525050565b600060e08301600083015161178860008601826116f9565b50602083015184820360208601526117a08282611719565b915050604083015184820360408601526117ba8282611719565b91505060608301516117cf6060860182611752565b5060808301516117e26080860182611752565b5060a08301516117f560a0860182611761565b5060c083015161180860c0860182611752565b508091505092915050565b600061181f8383611770565b905092915050565b6000602082019050919050565b600061183f826116cd565b61184981856116d8565b93508360208202850161185b856116e9565b8060005b8581101561189757848403895281516118788582611813565b945061188383611827565b925060208a0199505060018101905061185f565b50829750879550505050505092915050565b600060208201905081810360008301526118c38184611834565b905092915050565b6000819050919050565b60006118f06118eb6118e684611222565b6118cb565b611222565b9050919050565b6000611902826118d5565b9050919050565b6000611914826118f7565b9050919050565b61192481611909565b82525050565b600060208201905061193f600083018461191b565b92915050565b6000806040838503121561195c5761195b6110fd565b5b600061196a8582860161142c565b925050602061197b8582860161142c565b9150509250929050565b7f4e487b7100000000000000000000000000000000000000000000000000000000600052602260045260246000fd5b600060028204905060018216806119cc57607f821691505b6020821081036119df576119de611985565b5b50919050565b7f4e487b7100000000000000000000000000000000000000000000000000000000600052601160045260246000fd5b6000611a1f82611107565b91507fffffffffffffffffffffffffffffffffffffffffffffffffffffffffffffffff8203611a5157611a506119e5565b5b600182019050919050565b60008190508160005260206000209050919050565b60006020601f8301049050919050565b600082821b905092915050565b600060088302611abe7fffffffffffffffffffffffffffffffffffffffffffffffffffffffffffffffff82611a81565b611ac88683611a81565b95508019841693508086168417925050509392505050565b6000611afb611af6611af184611107565b6118cb565b611107565b9050919050565b6000819050919050565b611b1583611ae0565b611b29611b2182611b02565b848454611a8e565b825550505050565b600090565b611b3e611b31565b611b49818484611b0c565b505050565b5b81811015611b6d57611b62600082611b36565b600181019050611b4f565b5050565b601f821115611bb257611b8381611a5c565b611b8c84611a71565b81016020851015611b9b578190505b611baf611ba785611a71565b830182611b4e565b50505b505050565b600082821c905092915050565b6000611bd560001984600802611bb7565b1980831691505092915050565b6000611bee8383611bc4565b9150826002028217905092915050565b611c0782611179565b67ffffffffffffffff811115611c2057611c1f6112ea565b5b611c2a82546119b4565b611c35828285611b71565b600060209050601f831160018114611c685760008415611c56578287015190505b611c608582611be2565b865550611cc8565b601f198416611c7686611a5c565b60005b82811015611c9e57848901518255600182019150602085019450602081019050611c79565b86831015611cbb5784890151611cb7601f891682611bc4565b8355505b6001600288020188555050505b505050505050565b60006060820190508181036000830152611cea81866111d0565b9050611cf96020830185611213565b611d066040830184611213565b949350505050565b7f4c616e646d61726b20646f6573206e6f74206578697374000000000000000000600082015250565b6000611d44601783611184565b9150611d4f82611d0e565b602082019050919050565b60006020820190508181036000830152611d7381611d37565b9050919050565b6000604082019050611d8f6000830185611254565b8181036020830152611da181846111d0565b90509392505050565b600081519050611db981611111565b92915050565b600060208284031215611dd557611dd46110fd565b5b6000611de384828501611daa565b91505092915050565b7f4e487b7100000000000000000000000000000000000000000000000000000000600052603260045260246000fd5b6000611e2682611209565b9150611e3183611209565b925082820190508281121560008312168382126000841215161715611e5957611e586119e5565b5b92915050565b6000611e6a82611107565b9150611e7583611107565b9250828201905080821115611e8d57611e8c6119e5565b5b92915050565b6000611e9e82611209565b91507f7fffffffffffffffffffffffffffffffffffffffffffffffffffffffffffffff8203611ed057611ecf6119e5565b5b600182019050919050565b7f4e487b7100000000000000000000000000000000000000000000000000000000600052601260045260246000fd5b6000611f1582611209565b9150611f2083611209565b925082611f3057611f2f611edb565b5b600160000383147f800000000000000000000000000000000000000000000000000000000000000083141615611f6957611f686119e5565b5b82820590509291505056fea264697066735822122009fc10b4f5fc60d9093761846bff4aa8468ce085a4238353ac0356828c85118b64736f6c634300081c0033",
  "linkReferences": {},
  "deployedLinkReferences": {}
}